:1000000000080020390E0000910E00006D0B00006A
:1000100000000000000000000000000000000000E0
:10002000000000000000000000000000910E000031
:100030000000000000000000910E0000910E000082
:10004000910E0000910E0000910E0000910E000034
:10005000910E0000910E0000910E0000910E000024
:10006000910E0000910E0000910E0000110500009D
:10007000910E0000910E0000910E0000910E000004
:10008000910E0000910E0000910E0000910E0000F4
:10009000910E0000910E0000910E0000910E0000E4
:1000A000910E0000910E00003D040000910E000032
:1000B000910E0000B5010000910E0000910E0000AD
:1000C00010B5064C2378002B07D1054B002B02D02E
:1000D000044800E000BF0123237010BD8000002011
:1000E0000000000070270000084B10B5002B03D063
:1000F0000749084800E000BF07480368002B00D10B
:1001000010BD064B002BFBD09847F9E7000000001C
:1001100084000020702700007C0000200000000008
:10012000164B002B00D1144B9D46402292029A1A86
:10013000924600218B460F461348144A121A01F0CA
:1001400029FA0F4B002B00D098470E4B002B00D004
:1001500098470020002104000D000D48002802D01F
:100160000C4800E000BF01F0F1F92000290000F088
:100170009FFA01F0D5F9C0460000080000080020F1
:10018000000000000000000080000020C8000020E7
:10019000000000000000000010B51620592488213E
:1001A000034B5C60586059605A68002AF9D010BD52
:1001B000FC0000400123024A1360024A13607047AA
:1001C000A80000209030044070B501258026002250
:1001D000234CB605E36F11002B43E367214833003E
:1001E00000F074FA472200211E4800F0E3FA1E4B8B
:1001F00029001D601B4800F0ADFA1C4B1C4A1E6014
:10020000002313608023E16F1B010B43E367136836
:10021000002BFCD0134C0121200000F0B3FA646FD6
:10022000FFF7BAFF00F09EFB0422124BA4B2DA6083
:100230006C325A606F3A1A6119691142FCD19868A0
:10024000C02300051B01000D5843210000F026FFCC
:100250008022094B92051880084BDA6770BDC046B2
:1002600004300440003004409030044000E100E0DD
:10027000A800002000C000409E00002004E100E033
:100280000123802213B5074C19002000520100F011
:100290009DFB0023142200930121200000F0B8FBF5
:1002A00013BDC0460080004030B5144B144A197885
:1002B000002907D00021134D19702C788C4203D0EF
:1002C000012C12D0108830BD0F4B196840180F490F
:1002D00018600B880E2B02D801330B80F2E7012344
:1002E00000090C8010802B70ECE7074913880C681C
:1002F000E31A1818086000091080E3E79C0000204A
:10030000B000002000000020AC000020A60000206B
:100310000023044A1370044A1360044A1380044AF9
:100320001370704700000020AC000020B0000020D7
:100330009C00002073B56B4600259C1C01AB2580FA
:100340001D806B46DD80FFF79BFF144B188801234F
:100350009843FFF7A9FF124B20801B88268820882E
:100360001049584300F010FEB6B203000E493200A7
:100370000E4801F017F9208880B201F05DF80021E5
:1003800000F094FFA84200D025802288054B9A42B5
:1003900001D901332380208880B276BDA4000020DB
:1003A0009E000020FF0F0000C7250000142500005C
:1003B00070B50500FFF708FF01231A4CE26F1343E5
:1003C000E367194B194A1B685A43194B5A600022BC
:1003D0009A6005321A608022520219681142FCD0DC
:1003E00000260C221E6031000323124800F06EF933
:1003F000320031000F4800F0DDF9FFF741FF0E4AEF
:10040000D36F0123AB40D3678023E26F9B0013437C
:10041000E3678023E26F1B011343E367FFF778FF75
:1004200070BDC046043004400400002010270000C6
:1004300010E000E00030044008300440012170B5B5
:10044000104B114C0222E3580B420BD08425ED00D7
:100450006159114203D00D490D4801F0A3F8022360
:10046000635170BD134208D00A4BE058104201D0CE
:10047000094A11700222E250F3E7084801F00CF932
:10048000EFE7C0461C04000000800040DA250000B1
:1004900029250000240400009C00002034250000D1
:1004A00037B5174C0221200000F078FA0123802292
:1004B00019002000520100F089FA124B0025009328
:1004C000C023019520009B000F4A012100F08EFA05
:1004D0002B00009520001422012100F099FA2B0036
:1004E00020000422012100F0E3FA2A00012120006B
:1004F00000F0EAFA8022054BD2041A6037BDC046EC
:1005000000800040A40000200031044000E100E031
:1005100001220D4B10B5996811420DD09A600B4A1B
:100520000B4913888B4208D801331380094A13887A
:10053000132B04D80133138010BD0023F5E70020EE
:100540001080FFF7F7FEF7E720100540A00000201D
:10055000E7030000A2000020FA22802110B50A4C17
:1005600092000905200000F083FB802322689B0590
:10057000134380222360054B12011A6080232268F6
:10058000DB051343236010BD2010054000E100E0AF
:1005900010B5134800F022FBE1211248490200F097
:1005A000B3FB00F043F901000F4800F0FBFF00F03F
:1005B00009F901000D4800F0F5FF00F00FF9010006
:1005C0000B4800F0EFFF00F011F90100094800F0BE
:1005D000E9FF00F01BF90100074800F0E3FF10BD40
:1005E00010000004000007404E25000067250000B1
:1005F0007E25000095250000AE25000070B5FFF7B0
:10060000CBFD042000F056F9244C102000F072F9C4
:100610000021072000F080F9200000F053F980212C
:10062000802520001E4C0022C90400F007F920009C
:1006300000F048F9AD0320001A4C2900002200F018
:10064000FDF8200000F03EF98022200080242900DF
:10065000520200F0F3F8E405012000F033F900F055
:1006600019FCE36B104A114D1A40CC23DB031343F2
:10067000FF22E363A36B280093431A001123134363
:10068000A3630022032100F075F9C0236A689B026E
:1006900013436B600023FC34636070BD103D805FCA
:1006A0000500405F1CFE4367FFFF00FF4040004025
:1006B00010B5FFF7A3FFFFF76BFFFFF74DFFFFF745
:1006C000EFFE0020FFF774FEFEE70000F7B5C2243E
:1006D000640004590193E3072BD459251627AC462F
:1006E00088261A4C65466560676066606568002DFF
:1006F000F8D08025061DF76F6D012F43F7672F0097
:10070000F56F3D40FCD1656001248535FF354759C3
:1007100027434751C0277F00BC466346C75927433C
:10072000C7508027F36F3F011F43F76746592642A2
:10073000FCD0051DEC6F0A430549019B21400A438B
:10074000EA670830C26FC367F7BDC046FC000040CF
:10075000F3FBFFFF10B5CB0704D50223021DD46FB6
:100760002343D3670223194204D00200883214685D
:10077000234313604B0704D502238C3002681343D4
:10078000036010BD10B5CB0704D50224021DD36F42
:10079000A343D3670224214204D0020088321368A5
:1007A000A34313604B0704D502228C3003689343A4
:1007B000036010BDFF21A03003688B431A43026021
:1007C00070470000034B18680123184000D002480E
:1007D0007047C046000200400048E801024B18681C
:1007E0008007C00FC00370470002004010B500F042
:1007F00051FB0722034B5B6B1340034A1068D84040
:1008000010BDC046000200400C00002010B500F0F2
:1008100041FB044B044A5B6B10685B065B0FD840DE
:1008200010BDC046000200400C00002010B500F0D2
:1008300031FB014B186810BD0C000020F0B589B0E9
:100840006D46194B9446C4CBC4C51B686C462B60DF
:10085000002304930593069310330793830ADBB2B6
:1008600004AE002B0DD08705FF0EBB40624605038A
:10087000AD0FAD00AE590D4D761935689D432A4335
:10088000326003015B0F0CD08200C001C00E8340B8
:10089000920F9200A458064AA41822689A43114362
:1008A000216009B0F0BDC046EC25000020020040E8
:1008B00010020040024A1368184310607047C04697
:1008C000000200407FB501AA1100084B103370CB25
:1008D00070C1830F9B009A58054BD2181F231840F4
:1008E0001E3B834011680B4313607FBDEC25000065
:1008F00004020040064B07490A6D0240904201D1B4
:1009000001207047013B002BF6D11800F9E7C046E3
:1009100081F5200000020040F7B50425104C0600C8
:10092000236D1020019323680F002B432360FFF7F2
:10093000E1FF07220F21236913432361236A8B43BD
:100940001F432762236993431E43266100F0A2FAE6
:10095000019BDB0602D42368AB432360F7BDC0468E
:10096000000200400123024A11680B4313607047E4
:1009700000C00040F0B50023032601249C40214222
:1009800008D035005F00BD400468AC431500BD4091
:100990002C4304600133102BEFD1F0BD002370B560
:1009A0001A000124084D26009E40314202D01E014B
:1009B00032505A550133052BF5D18023DB00C25844
:1009C0001143C15070BDC046B2000020090140185B
:1009D00010B50168044C013B2140016001681B0413
:1009E0001A430A43026010BDFFCF000009014018FE
:1009F0004260009A0549826002680A4002600199DB
:100A000002680B43134303607047C046FFF0FFFFCB
:100A100070B5040020484254042913D8080000F09F
:100A2000A9FA0309222930009025ED003F266059DC
:100A3000B04305E09025ED006059184E1202304099
:100A40000243625109010322002B1CD061180B687C
:100A500093431A00022313430B60114B049AE3588B
:100A6000D31ACB6070BD9025ED0060590D4E120475
:100A70003040E5E79025ED0060590B4E12063040FE
:100A8000DEE70A4DD2E76418236893431A00012376
:100A900013432360E6E7C046B2000020FFC0FFFF1B
:100AA0003C040000FFFFC0FFFFFFFFC08404000004
:100AB00010B574240901401801681A43A14301606C
:100AC00001680A43026010BD10B5012A0CD0002A4B
:100AD00002D0022A0FD010BD832201238B40D20006
:100AE000845823438350F6E78022090140180368A5
:100AF00093430360EFE78722EFE7000010B504009F
:100B0000114800F0C9FD2168104800F04BFD6168F4
:100B10000F4800F047FDA1680E4800F043FDE16872
:100B20000D4800F03FFD21690C4800F03BFD616974
:100B30000B4800F037FDA1690A4800F033FDE16978
:100B4000094800F02FFDFEE7082600001E260000E1
:100B50002A26000036260000422600004E2600000D
:100B60005A2600006626000072260000064B04206C
:100B70007146084203D0EFF309807146BEE7EFF3F8
:100B80000880BBE7FEE7C046FD0A0000802070B584
:100B90000D250B4B8C180004A14201D1100070BD33
:100BA0009E690642FCD100268E571E6001268E5794
:100BB0000A2E03D19E690642FCD11D600131EBE78C
:100BC000000007408022044BD20198691042FCD1FA
:100BD0001B6801200B70704700000740064A030E97
:100BE0009B1801220002000A824019681143196013
:100BF00019689143196070470800004070B588B0CB
:100C00006946164B6A4670CB70C170CB70C130CB51
:100C100030C1134B1349984207D14B695B055B0FF9
:100C2000022B16D09B00D05815E00F4B984202D1F2
:100C30004B695B04F3E70D4C07234969A04206D1D9
:100C4000090C0B40022BEDD1FFF7E0FD03E0090D8D
:100C5000F7E7FFF7CBFD08B070BDC0468026000067
:100C60000000054000020040200005400010054043
:100C7000F8B506000F001400FFF7C0FF0500430899
:100C8000A34210D9210000F07FF9040E02D0611CAC
:100C900000F07AF92743611C3760414370602800F7
:100CA00000F072F9F8BD00240220F3E7012307B534
:100CB000A02101AA1370DB18537093700233D37014
:100CC0000E4BC9021B6C00200B4213D1190312D426
:100CD0000B4899030ED4D905C90D02318008484349
:100CE0001904890F525C9904C90E0231514300F076
:100CF0004BF980000EBD0348EBE7C0460002004000
:100D00000048E801001BB700F0B589B002AE320020
:100D1000324B05000F0013CB13C213CB13C2304A62
:100D2000954230D12F4B5C69196A6401640F090543
:100D30000B0F019300232B630333EB60AB682A494D
:100D40000B40AB60012C37D1FFF7B0FF7060002F74
:100D500017D00199A4000131305900F015F90400B1
:100D600078080019390000F00FF9204B023898423A
:100D700030D9F8000019390000F006F900090238EE
:100D8000686209B0F0BD1A4B9D4206D1154B5C69F3
:100D9000196A6400640F0904CAE7164B9D4207D123
:100DA0000F21104BDC691B6B6401640F0B40C0E723
:100DB000002301931C00BDE7042CC8D1954202D04A
:100DC0000C4B9D4203D1FFF711FD3061BFE7FFF7E8
:100DD0001DFDFAE7C0239B051843D1E7A0260000BC
:100DE00000000740000200400FFFF0FFFFFF00007F
:100DF000001007400020074010B500F08BFB58237F
:100E000003600120404210BD10B500F083FB582361
:100E100003600120404210BD10B500F07BFB582359
:100E20000360002010BD10B500F074FB5823036070
:100E30000120404210BD00000E490F4A0F4B9B1A83
:100E400003DD043BC858D050FBDC0D48592101603C
:100E500016210160882101600A480B4901600B4896
:100E60000121016006480021016000F065F8FFF7EC
:100E700057F900007C2700000000002080000020BF
:100E80000001004024000040A55A000080020040FC
:100E9000FEE7C046072337B5A0211E4D01AA2C69E5
:100EA000C9021C40063B1370013353709370023328
:100EB000D3702B6C00200B4213D1190328D4164891
:100EC00099030ED4D905C90D02318008484319048D
:100ED000890F525C9904C90E0231514300F054F855
:100EE00080000E4B1860022C02D00D4BA400E0587D
:100EF0000F23296A1940013100F046F8094B0A49CD
:100F000018600A4BC01800F03FF8094B186037BD55
:100F10000848D5E7000200400048E801080000202A
:100F2000B82600000C00002040420F0020A107005E
:100F300004000020001BB70010B51620592488219A
:100F4000094B5C60586059605A68002AF9D0074A1A
:100F50000748116801401160E0211068C90301438E
:100F6000116000225A6010BDFC00004000020040E9
:100F7000FFFF8FFF02B4714649084900095C490030
:100F80008E4402BC7047C046002243088B4274D393
:100F900003098B425FD3030A8B4244D3030B8B427A
:100FA00028D3030C8B420DD3FF22090212BA030C83
:100FB0008B4202D31212090265D0030B8B4219D364
:100FC00000E0090AC30B8B4201D3CB03C01A524184
:100FD000830B8B4201D38B03C01A5241430B8B42CC
:100FE00001D34B03C01A5241030B8B4201D30B03B5
:100FF000C01A5241C30A8B4201D3CB02C01A5241DC
:10100000830A8B4201D38B02C01A5241430A8B429E
:1010100001D34B02C01A5241030A8B4201D30B0287
:10102000C01A5241CDD2C3098B4201D3CB01C01AA1
:10103000524183098B4201D38B01C01A52414309AB
:101040008B4201D34B01C01A524103098B4201D399
:101050000B01C01A5241C3088B4201D3CB00C01A06
:10106000524183088B4201D38B00C01A524143087E
:101070008B4201D34B00C01A5241411A00D20146A3
:10108000524110467047FFE701B5002000F0F0F82C
:1010900002BDC0460029F7D076E7704703460B43F0
:1010A0007FD4002243088B4274D303098B425FD361
:1010B000030A8B4244D3030B8B4228D3030C8B428D
:1010C0000DD3FF22090212BA030C8B4202D3121273
:1010D000090265D0030B8B4219D300E0090AC30B48
:1010E0008B4201D3CB03C01A5241830B8B4201D3F5
:1010F0008B03C01A5241430B8B4201D34B03C01ADE
:101100005241030B8B4201D30B03C01A5241C30A55
:101110008B4201D3CB02C01A5241830A8B4201D3C6
:101120008B02C01A5241430A8B4201D34B02C01AB0
:101130005241030A8B4201D30B02C01A5241CDD255
:10114000C3098B4201D3CB01C01A524183098B42A0
:1011500001D38B01C01A524143098B4201D34B0189
:10116000C01A524103098B4201D30B01C01A5241EC
:10117000C3088B4201D3CB00C01A524183088B4273
:1011800001D38B00C01A524143088B4201D34B005C
:10119000C01A5241411A00D20146524110467047CE
:1011A0005DE0CA0F00D04942031000D340425340D3
:1011B00000229C4603098B422DD3030A8B4212D393
:1011C000FC22890112BA030A8B420CD389019211C5
:1011D0008B4208D3890192118B4204D389013AD002
:1011E000921100E08909C3098B4201D3CB01C01AD7
:1011F000524183098B4201D38B01C01A52414309EA
:101200008B4201D34B01C01A524103098B4201D3D7
:101210000B01C01A5241C3088B4201D3CB00C01A44
:10122000524183088B4201D38B00C01A5241D9D25C
:1012300043088B4201D34B00C01A5241411A00D2DD
:101240000146634652415B10104601D34042002BD9
:1012500000D54942704763465B1000D3404201B558
:10126000002000F005F802BD0029F8D016E770470D
:101270007047C0468446081C6146FFE71FB500F072
:1012800099F8002801D40021C8421FBD10B500F014
:101290002BF84042013010BD10B500F08BF800284B
:1012A00001DB002010BD012010BDC04610B500F0CC
:1012B00081F8002801DD002010BD012010BDC046CE
:1012C00010B500F037F8002801DC002010BD012027
:1012D00010BDC04610B500F02DF8002801DA00203E
:1012E00010BD012010BDC04670B5420045024E023F
:1012F0004C00C30F6D0A120E760A240EC90F01208E
:10130000FF2A06D0FF2C03D0A24201D1B54206D05D
:1013100070BD002DFCD1FF2CFAD1002EF8D18B42EC
:1013200006D00120002AF3D12800451EA841EFE78E
:101330000020EDE7F0B5420045024C02C30F480023
:101340006D0A120E640A000EC90FFF2A1ED0FF2874
:1013500021D0002A0AD16E426E41F6B200280FD188
:10136000002C0DD10020002D09D005E0002801D16E
:10137000002C01D08B4211D0012158420843F0BD0E
:10138000002EF7D0012001390843F8E7002DDED008
:1013900002204042F3E7002CDBD0F9E78242EBDC8D
:1013A00004DBA542E8D80020A542E8D20121581E5E
:1013B0000843E4E7F0B542004D024C004602760ACD
:1013C000120EC30F6D0A240EC90FFF2A16D0FF2C70
:1013D00018D0002A0AD170427041C0B2002C15D03A
:1013E000002805D0012001390843F0BD002C13D09E
:1013F000994214D001205B421843F6E70220002EE8
:10140000F3D1E4E70220002DEFD1E2E7002DE7D190
:101410000020002EE9D0EDE7002DE9D1EAE7A24255
:1014200006DCDFDBAE4203D80020AE42DAD3DCE7D5
:10143000012049420843D8E770B5002830D0C317CF
:10144000C4185C40C50F200000F046F89E231B1A0C
:10145000962B0DDC9622D21A94402A006402640A6C
:10146000DBB26402DB05600AD2071843104370BD8B
:10147000992B19DC9922D21A002A29DD94402200E6
:10148000144C1440510704D00F210A40042A00D004
:101490000434620113D4A401640ADBB22A00E0E739
:1014A000002200230024DCE705222100121AD1408B
:1014B000B922D21A9440621E94410C43DAE7054BDC
:1014C0002A001C409F23A4011B1A640ADBB2C8E750
:1014D0002200D5E7FFFFFFFB1C2101231B049842DC
:1014E00001D3000C10391B0A984201D3000A0839B5
:1014F0001B09984201D30009043902A2105C40186C
:101500007047C0460403020201010101000000000F
:1015100000000000014B18687047C0461000002012
:10152000084B10B50400002B02D0002100E000BFE2
:10153000054B1868836A002B00D09847200000F004
:10154000DBFFC04600000000D826000070B5002672
:101550000C4D0D4C641BA410A64209D1002600F0CE
:10156000CDFF0A4D0A4C641BA410A64205D170BDE4
:10157000B300EB5898470136EEE7B300EB589847B5
:101580000136F2E77400002074000020740000208F
:101590007800002003008218934200D17047197030
:1015A0000133F9E70FB40B4B13B51C68002C05D0C1
:1015B000A369002B02D1200000F03CFA05AB049A8D
:1015C000A1682000019300F007FC16BC08BC04B021
:1015D0001847C0461000002070B505000E00002816
:1015E00004D08369002B01D100F024FAAB69AC6808
:1015F000002B02D1280000F01DFA244B9C420FD191
:101600006C68A3891B0702D52369002B20D1210018
:10161000280000F0A1F800281AD00120404270BD37
:101620001B4B9C4201D1AC68EBE71A4B9C42E8D1C2
:10163000EC68E6E7013B0136A360002B04DAA269FF
:10164000934216DB0A2914D023685A1C22601970B1
:101650003178A3680029EDD1013BA360002B0FDA9C
:1016600022000A31280000F021F8431CD5D00A20BE
:10167000D5E72200280000F019F8431CE8D1CCE798
:101680000A2023685A1C22601870C8E7FC26000054
:101690001C270000DC26000010B5034B0100186871
:1016A000FFF79AFF10BDC04610000020F8B50500F6
:1016B0000E001400002804D08369002B01D100F033
:1016C000B9F9224B9C422DD16C68A369A360A38910
:1016D0001B0731D52369002B2ED023682269F7B26E
:1016E000981A6369F6B2984205DB2100280000F0E1
:1016F00033F9002826D1A3680130013BA360236899
:101700005A1C22601F706369984204D0A389DB07CA
:101710001AD50A2E18D12100280000F01DF9002842
:1017200012D00FE00A4B9C4201D1AC68CDE7094BC7
:101730009C42CAD1EC68C8E72100280000F00CF8F0
:101740000028CAD0012676423000F8BDFC260000F1
:101750001C270000DC260000364B70B51D68060013
:101760000C00002D05D0AB69002B02D1280000F041
:1017700061F9314B9C420FD16C680C23E25E93B24D
:1017800019072DD4D90611D409230120336037332A
:101790001343A381404270BD284B9C4201D1AC68E9
:1017A000EBE7274B9C42E8D1EC68E6E75B0713D5F3
:1017B000616B002908D023004433994202D03000E5
:1017C00000F03AFA002363632422A3899343A381A0
:1017D00000236360236923600823A2891343A38144
:1017E0002369002B0BD1A0218022A38989009200BC
:1017F0000B40934203D02100300000F0D9F90123BF
:10180000A289134011D00023A36063695B42A361E6
:10181000002023698342BED10C23E25E1306BAD5B1
:1018200040231343A3810138B5E7920700D46369CD
:10183000A360EDE710000020FC2600001C2700003C
:10184000DC260000F7B58A8905000C00130760D478
:101850004B68002B04DC0B6C002B01DC0020FEBD70
:10186000E76A002FFAD000232E682B6080235B01EB
:101870001A4034D0606DA3895B0706D56368C01A2F
:10188000636B002B01D0236CC01A0200216A002375
:101890002800E76AB847A189431C06D12B681D2B95
:1018A00031D82C4ADA40D3072DD500236360236951
:1018B0002360CB0405D5431C02D12B68002B00D13B
:1018C0006065616B2E600029C8D0230044339942C3
:1018D00002D0280000F0B0F900206063BFE70123C8
:1018E000216A2800B847431CC5D12B68002BC2D001
:1018F0001D2B01D0162B01D12E60AFE74023A2890A
:101900001343A381ABE740230B430120A381404253
:10191000A5E70F69002FA1D00B680F60DB1B0193B7
:101920000023920700D14B69A360019B002B00DCD0
:1019300094E7019B3A00216A2800A66AB047002874
:1019400003DC4023A2891343DFE7019B3F181B1AE6
:101950000193EAE7010040200B6970B505000C0017
:10196000002B01D1002070BD002804D08369002B1A
:1019700001D100F05FF80B4B9C4209D16C680C223E
:10198000A35E002BEED021002800FFF75BFFEAE703
:10199000054B9C4201D1AC68F1E7044B9C42EED16F
:1019A000EC68ECE7FC2600001C270000DC260000A9
:1019B00010B5024900F0B2F810BDC0465919000038
:1019C000002310B504000360436083608181436697
:1019D000C281036143618361190008225C30FFF713
:1019E000D9FD054B24626362044BA362044BE3629E
:1019F000044B236310BDC046452300006D23000047
:101A0000A5230000D123000070B568254A1E554368
:101A10000E002900743100F059F9041E08D000218D
:101A20002A00016046600C30A0606832FFF7B2FD0A
:101A3000200070BD836913B50400002B28D1836496
:101A4000C3640365134B144A1B6882620193984276
:101A500001D101238361200000F020F860602000A4
:101A600000F01CF8A060200000F018F80022E060F0
:101A700004216068FFF7A4FF01220921A068FFF795
:101A80009FFF02221221E068FFF79AFF0123A36162
:101A900013BDC046D8260000B1190000F8B51E4B92
:101AA00007001E68B369002B02D13000FFF7C2FFA8
:101AB0004836B4687368013B04D53368002B07D0FF
:101AC0003668F6E70C22A55E002D0DD06834F2E7EB
:101AD00004213800FFF798FF30600028F0D10C2374
:101AE00004003B602000F8BD012320005B42E3813D
:101AF0000233A38165662560A56065602561656127
:101B0000A561082229005C30FFF744FD6563A563E9
:101B1000A564E564E6E7C046D8260000F7B50400F2
:101B20000700002601914834002C01D13000FEBD91
:101B30006368A5680093009B013B009301D524686E
:101B4000F2E7AB89012B08D90E22AB5E013304D03A
:101B500029003800019B984706436835EBE70000F1
:101B600070B50E001D000E23C95E90B01400002950
:101B700007DA00232B60B3891B0611D48023DB0016
:101B80000FE001AA00F050FC0028F2DBF022029BDB
:101B900012021340054A9B185A4253412B60EDE74D
:101BA00040230020236010B070BDC04600E0FFFF5E
:101BB000F7B502268B8905000C00334206D02300BE
:101BC00047332360236101236361F7BD01AB6A469C
:101BD000FFF7C6FF00990700280000F077F80028FB
:101BE00008D10C22A35E9A05EFD4032293431E432F
:101BF000A681E4E70F4BAB628023A28920601343E8
:101C0000A381009B20616361019B002B0DD00E23FB
:101C1000E15E280000F01AFC002806D00322A38908
:101C200093431A0001231343A381A0893843A08161
:101C3000CBE7C046B119000070B50500002910D0EF
:101C40000C1F2368002B00DAE418280000F02FFC9A
:101C50001D4A1368002B05D163601460280000F052
:101C600027FC70BDA34209D9216860188342F3D1D3
:101C700018685B6841182160EEE713005A68002A73
:101C800001D0A242F9D919685818A0420BD1206896
:101C90000918581819608242E0D11068526841183A
:101CA00019605A60DAE7A04202D90C232B60D5E70D
:101CB00021686018824203D110685268411821607F
:101CC00062605C60CAE7C046B8000020032370B5BC
:101CD000CD1C9D43083506000C2D1ED20C25A942B3
:101CE0001DD8300000F0E3FB254A146821000029CC
:101CF00019D1244C2368002B03D1300000F010FBD5
:101D000020602900300000F00BFB431C2CD10C2379
:101D10003000336000F0CCFB03E0002DDFDA0C2351
:101D20003360002070BD0B685B1B1AD40B2B03D9EA
:101D30000B60CC18256003E08C420ED16368136001
:101D4000300000F0B5FB200007220B30231D90432C
:101D5000C31AE7D05A42E250E4E74B6863600C00D4
:101D6000EEE70C004968C2E70323C41C9C43A04271
:101D7000E0D0211A300000F0D3FA431CDAD1C6E7D4
:101D8000B8000020BC000020936810B5013B9360B0
:101D9000002B05DA9469A34208DBCBB20A2B05D0ED
:101DA0001368581C10601970C8B210BDFFF77EFC94
:101DB000FBE7F8B506000F001400D518AC4201D1BE
:101DC000002007E021783A003000FFF7DDFF013402
:101DD000431CF3D1F8BD0000F0B59FB006000F0022
:101DE00014000593002804D08369002B01D1FFF76C
:101DF00021FE7F4B9F425CD17768BB891B0762D570
:101E00003B69002B5FD0002306AD6B6120336B76FE
:101E10001033AB760294029C2378002B5DD1029B99
:101E2000E31A04930DD0049B029A39003000FFF7A7
:101E3000C0FF431C00D1CCE06A69049B9446634414
:101E40006B612378002B00D1C3E0012200235242B2
:101E50006A6002A95432521801342B60EB60AB6007
:101E60001370AB6521780522624800F015FB631CF6
:101E70009C46002835D12968CB0604D5532302AAF5
:101E800020309B1818700B0704D553232B2002AA6F
:101E90009B18187023782A2B2CD000200A21099B2C
:101EA0002278303A092A00D86BE000282AD009931A
:101EB00028E0514B9F4201D1B7689EE74F4B9F42AC
:101EC0009BD1F76899E739003000FFF745FC0028FF
:101ED00099D0012040421FB0F0BD252B9FD0013486
:101EE0009AE7444B2968C01A012383400B432B60B7
:101EF0006446B7E7059B181D1B680590002B3ADB6D
:101F00000993644623782E2B0BD16378621C2A2B0D
:101F10003FD1059B02341A1D1B680592002B35DB4F
:101F2000079321780322364800F0B6FA002807D03C
:101F3000334B2A68C01A4023834013432B6001347B
:101F40002178631C06222F480293297600F0A4FA18
:101F5000002844D02C4B002B2FD12968059B072249
:101F6000C90528D59B189343083305936B69039AD9
:101F70009B186B614FE75B42EB6002230B432B60C6
:101F8000BFE74B4301349B18012089E701235B42E3
:101F9000C6E7002314000A201A006B60217830394C
:101FA000092903D9002BBCD00792BAE74243013478
:101FB00052180123F2E70733D5E705AB00933A0047
:101FC000124B2900300000E000BF0390039B013357
:101FD000CCD1BB895B0600D57BE70B987BE705ABD3
:101FE00000933A00094B2900300000F07FF8ECE73D
:101FF000FC2600003C2700001C270000DC26000017
:10200000422700004627000000000000B31D00002A
:10201000F7B5150001938A680B6900900C00934294
:1020200000DA130022002B6043321278002A01D01C
:1020300001332B6023689B0602D52B6802332B608B
:10204000062723681F4027D0230043331B785A1EDE
:1020500093412268920630D42200019943320098BD
:10206000089EB047431C25D0062320682A68E168F3
:1020700003400025042B03D18D1AEB43DB171D40D1
:10208000A3682269934201DD9B1AED180027BD4227
:1020900020D1002010E00137E3682A689B1A9F4294
:1020A000D2DA22000123193201990098089EB04724
:1020B000431CF0D101204042FEBD3020E1184331E5
:1020C000087021005A1C45310978A21843320233A6
:1020D0001170C1E7220001231A3201990098089E6D
:1020E000B047431CE6D00137D1E70000F0B58BB014
:1020F00006920A0043320793059004920A7E0C0070
:10210000109B6E2A00D18FE017D8632A2CD008D8F4
:10211000002A00D199E0582A54D026004236327065
:1021200029E0642A01D0692AF7D121681A680806D3
:1021300023D5111D1960156825E0732A00D188E0A8
:1021400008D86F2A29D0702AE7D1202209680A43CB
:10215000226003E0752A20D0782ADED1220078217F
:10216000453211706C4A30E00E001A684236111D7B
:10217000196013683370012379E04906D9D5111D20
:1021800019600023D55E002D03DA2D23049A6D42D9
:102190001370624B0A2703932FE020681968050625
:1021A00003D5081D18600D6805E04006F9D50D68D7
:1021B000081D1860ADB2594B082703936F2A18D039
:1021C0000A2716E045310A70544A03921A682168BA
:1021D000101D18601568080622D5CB0702D52023EC
:1021E000194321601027002D03D1202322689A4330
:1021F00022602300002243331A706368A360002B1F
:102200005CDB0422216891432160002D58D1049E9B
:10221000002B64D02600039B42361B7833705EE0AF
:102220004806DAD5ADB2D8E709681A68080605D5B8
:10223000111D1960136862691A6006E04906F7D536
:10224000111D19601368A28A1A800023049E23615D
:1022500054E01A68111D1960166800216268300088
:1022600000F01AF9002801D0801B606063682361C8
:102270000023049A137041E02369320006990598FF
:10228000079DA847431C43D0236800259B070FD414
:10229000099BE06898423DDA18003BE022000123E8
:1022A000193206990598079EB047431C30D0013576
:1022B000E368099A9B1A9D42F0DBE9E7002DA9D05B
:1022C000049E28003900FEF7E5FE039B013E5B5C9F
:1022D000280033703900FEF757FE051EF1D1082F94
:1022E00009D12368DB0706D563682269934202DCC3
:1022F0003023013E3370049B9B1B2361079B09AA7B
:1023000000932100069B0598FFF782FE431CB3D182
:10231000012040420BB0F0BD5E2700004D270000B9
:10232000002370B5064C05000800236000F0D6F8C5
:10233000431C03D12368002B00D02B6070BDC04626
:10234000C400002070B50C000E25495F00F0B2F803
:10235000002803DB636D1B18636570BDA389024A07
:102360001340A381F9E7C046FFEFFFFFF8B51F0058
:102370008B8905000C001600DB0505D50E23C95E10
:102380000022022300F074F8A389054A28001340B4
:10239000A38132000E23E15E3B0000F01FF8F8BD80
:1023A000FFEFFFFF70B50C000E25495F00F060F8ED
:1023B000A389421C03D1054A1340A38170BD80222A
:1023C00052011343A3816065F8E7C046FFEFFFFFAA
:1023D00010B50E23C95E00F015F810BD70B50500EC
:1023E000080011000022064C22601A00FEF7CEFB06
:1023F000431C03D12368002B00D02B6070BDC04666
:10240000C4000020002370B5064C050008002360BE
:10241000FEF7F2FC431C03D12368002B00D02B6095
:1024200070BDC046C4000020002370B5064C0500F6
:10243000080011002360FEF7E7FC431C03D123686A
:10244000002B00D02B6070BDC4000020002370B5AD
:10245000064C050008002360FEF7DEFC431C03D198
:102460002368002B00D02B6070BDC046C400002044
:1024700070B50500080011000022064C22601A0009
:10248000FEF7D1FC431C03D12368002B00D02B6046
:1024900070BDC046C4000020C9B28218904201D16C
:1024A0000020704703788B42FBD00130F6E770477D
:1024B0007047000070B50500080011000022064CAE
:1024C00022601A00FEF77EFB431C03D12368002B19
:1024D00000D02B6070BDC046C4000020044A1368C1
:1024E000002B03D01818106018007047014BF9E753
:1024F000C0000020C8000020FEE7C046F8B5C04676
:10250000F8BC08BC9E467047F8B5C046F8BC08BC8D
:102510009E4670472573203A20307825345820286D
:102520002564206D76290D0A0025732061626F7283
:10253000740D0A00756E6B6E6F776E2050444D41BE
:1025400020696E74657272757074202121000D0A05
:10255000434C4B5F47657443505546726571203A52
:10256000202538640D0A00434C4B5F47657448587A
:102570005446726571203A202538640D0A00434C98
:102580004B5F4765744C585446726571203A20255C
:1025900038640D0A00434C4B5F47657450434C4B05
:1025A0003046726571203A202538640D0A00434C8C
:1025B0004B5F47657450434C4B3146726571203A0E
:1025C000202538640D0A004144435F436F6E7665F1
:1025D00072744368616E6E656C0050444D415F4992
:1025E000525148616E646C6572000000000000008A
:1025F00004000000080000000C00000000000000C3
:102600000400000008000000496E20486172642048
:102610004661756C742048616E646C65720072303E
:1026200020203D20307825780A00723120203D207E
:10263000307825780A00723220203D2030782578C5
:102640000A00723320203D20307825780A0072314C
:1026500032203D20307825780A006C7220203D2001
:10266000307825780A00706320203D203078257866
:102670000A00707372203D20307825780A0000002F
:102680000048E80100800000000000000000000099
:10269000000000000096000000000000006CDC025A
:1026A0000048E8010000000000800000006CDC022F
:1026B00000000000009600000048E80100800000D3
:1026C00000D8B80500960000006CDC020000000095
:1026D00000000000006CDC0214000020000000007C
:1026E00000000000000000000000000000000000EA
:1026F00000000000000000000000000000000000DA
:1027000000000000000000000000000000000000C9
:1027100000000000000000000000000000000000B9
:1027200000000000000000000000000000000000A9
:10273000000000000000000000000000232D302BEE
:102740002000686C4C0065666745464700303132B2
:102750003334353637383941424344454600303109
:102760003233343536373839616263646566000068
:042770000000000065
:08277400ACD9FF7F0100000059
:10277C00020000006000000000D8B80500D8B805C1
:10278C001400002000000000FC2600001C270000A4
:10279C00DC2600000000000000000000000000002B
:1027AC00000000000000000000000000000000001D
:1027BC00000000000000000000000000000000000D
:1027CC0000000000000000000000000000000000FD
:1027DC0000000000000000000000000000000000ED
:1027EC0000000000E9000000C10000000000000033
:0400000300000E39B2
:00000001FF
